{
  "contractName": "crowdfunding",
  "abi": [
    {
      "anonymous": false,
      "inputs": [
        {
          "indexed": true,
          "internalType": "address",
          "name": "previousOwner",
          "type": "address"
        },
        {
          "indexed": true,
          "internalType": "address",
          "name": "newOwner",
          "type": "address"
        }
      ],
      "name": "OwnershipTransferred",
      "type": "event"
    },
    {
      "stateMutability": "payable",
      "type": "fallback"
    },
    {
      "inputs": [],
      "name": "getLatestPrice",
      "outputs": [
        {
          "internalType": "int256",
          "name": "",
          "type": "int256"
        }
      ],
      "stateMutability": "view",
      "type": "function"
    },
    {
      "inputs": [],
      "name": "owner",
      "outputs": [
        {
          "internalType": "address",
          "name": "",
          "type": "address"
        }
      ],
      "stateMutability": "view",
      "type": "function"
    },
    {
      "inputs": [],
      "name": "renounceOwnership",
      "outputs": [],
      "stateMutability": "nonpayable",
      "type": "function"
    },
    {
      "inputs": [
        {
          "internalType": "address",
          "name": "newOwner",
          "type": "address"
        }
      ],
      "name": "transferOwnership",
      "outputs": [],
      "stateMutability": "nonpayable",
      "type": "function"
    },
    {
      "stateMutability": "payable",
      "type": "receive"
    },
    {
      "inputs": [],
      "name": "sendFund",
      "outputs": [],
      "stateMutability": "payable",
      "type": "function"
    },
    {
      "inputs": [],
      "name": "withdraw",
      "outputs": [],
      "stateMutability": "nonpayable",
      "type": "function"
    },
    {
      "inputs": [],
      "name": "listOfDonors",
      "outputs": [
        {
          "components": [
            {
              "internalType": "address",
              "name": "wallet",
              "type": "address"
            },
            {
              "internalType": "uint256",
              "name": "amount",
              "type": "uint256"
            }
          ],
          "internalType": "struct crowdfunding.fundDetails[]",
          "name": "",
          "type": "tuple[]"
        }
      ],
      "stateMutability": "view",
      "type": "function"
    }
  ],
  "bytecode": "0x608060405234801561001057600080fd5b5061003f61002b610099640100000000026401000000009004565b6100a1640100000000026401000000009004565b732514895c72f50d8bd4b4f9b1110f0d6bd2c97526600160006101000a81548173ffffffffffffffffffffffffffffffffffffffff021916908373ffffffffffffffffffffffffffffffffffffffff160217905550610165565b600033905090565b60008060009054906101000a900473ffffffffffffffffffffffffffffffffffffffff169050816000806101000a81548173ffffffffffffffffffffffffffffffffffffffff021916908373ffffffffffffffffffffffffffffffffffffffff1602179055508173ffffffffffffffffffffffffffffffffffffffff168173ffffffffffffffffffffffffffffffffffffffff167f8be0079c531659141344cd1fd0a4f28419497f9722a3daafe3b4186f6b6457e060405160405180910390a35050565b610d51806101746000396000f3fe608060405260043610610091576000357c0100000000000000000000000000000000000000000000000000000000900480638da5cb5b1161006b5780638da5cb5b146102455780638e15f47314610270578063dd0cf15d1461029b578063f2fde38b146102a557610141565b806318346d8f146101ec5780633ccfd60b14610217578063715018a61461022e57610141565b3661014157600260405180604001604052803373ffffffffffffffffffffffffffffffffffffffff16815260200134815250908060018154018082558091505060019003906000526020600020906002020160009091909190915060008201518160000160006101000a81548173ffffffffffffffffffffffffffffffffffffffff021916908373ffffffffffffffffffffffffffffffffffffffff160217905550602082015181600101555050005b600260405180604001604052803373ffffffffffffffffffffffffffffffffffffffff16815260200134815250908060018154018082558091505060019003906000526020600020906002020160009091909190915060008201518160000160006101000a81548173ffffffffffffffffffffffffffffffffffffffff021916908373ffffffffffffffffffffffffffffffffffffffff160217905550602082015181600101555050005b3480156101f857600080fd5b506102016102ce565b60405161020e9190610b1f565b60405180910390f35b34801561022357600080fd5b5061022c61038d565b005b34801561023a57600080fd5b5061024361047e565b005b34801561025157600080fd5b5061025a610506565b6040516102679190610b04565b60405180910390f35b34801561027c57600080fd5b5061028561052f565b6040516102929190610b41565b60405180910390f35b6102a36105fb565b005b3480156102b157600080fd5b506102cc60048036038101906102c79190610935565b6106b3565b005b60606002805480602002602001604051908101604052809291908181526020016000905b8282101561038457838290600052602060002090600202016040518060400160405290816000820160009054906101000a900473ffffffffffffffffffffffffffffffffffffffff1673ffffffffffffffffffffffffffffffffffffffff1673ffffffffffffffffffffffffffffffffffffffff168152602001600182015481525050815260200190600101906102f2565b50505050905090565b6103956107ab565b73ffffffffffffffffffffffffffffffffffffffff166103b3610506565b73ffffffffffffffffffffffffffffffffffffffff1614610409576040517f08c379a000000000000000000000000000000000000000000000000000000000815260040161040090610b7c565b60405180910390fd5b610411610506565b73ffffffffffffffffffffffffffffffffffffffff166108fc3073ffffffffffffffffffffffffffffffffffffffff16319081150290604051600060405180830381858888f1935050505015801561046d573d6000803e3d6000fd5b506002600061047c9190610877565b565b6104866107ab565b73ffffffffffffffffffffffffffffffffffffffff166104a4610506565b73ffffffffffffffffffffffffffffffffffffffff16146104fa576040517f08c379a00000000000000000000000000000000000000000000000000000000081526004016104f190610b7c565b60405180910390fd5b61050460006107b3565b565b60008060009054906101000a900473ffffffffffffffffffffffffffffffffffffffff16905090565b600080600160009054906101000a900473ffffffffffffffffffffffffffffffffffffffff1673ffffffffffffffffffffffffffffffffffffffff1663feaf968c6040518163ffffffff167c010000000000000000000000000000000000000000000000000000000002815260040160a06040518083038186803b1580156105b657600080fd5b505afa1580156105ca573d6000803e3d6000fd5b505050506040513d601f19601f820116820180604052508101906105ee9190610962565b5050509150508091505090565b600061060561052f565b9050600260405180604001604052803373ffffffffffffffffffffffffffffffffffffffff16815260200134815250908060018154018082558091505060019003906000526020600020906002020160009091909190915060008201518160000160006101000a81548173ffffffffffffffffffffffffffffffffffffffff021916908373ffffffffffffffffffffffffffffffffffffffff16021790555060208201518160010155505050565b6106bb6107ab565b73ffffffffffffffffffffffffffffffffffffffff166106d9610506565b73ffffffffffffffffffffffffffffffffffffffff161461072f576040517f08c379a000000000000000000000000000000000000000000000000000000000815260040161072690610b7c565b60405180910390fd5b600073ffffffffffffffffffffffffffffffffffffffff168173ffffffffffffffffffffffffffffffffffffffff16141561079f576040517f08c379a000000000000000000000000000000000000000000000000000000000815260040161079690610b5c565b60405180910390fd5b6107a8816107b3565b50565b600033905090565b60008060009054906101000a900473ffffffffffffffffffffffffffffffffffffffff169050816000806101000a81548173ffffffffffffffffffffffffffffffffffffffff021916908373ffffffffffffffffffffffffffffffffffffffff1602179055508173ffffffffffffffffffffffffffffffffffffffff168173ffffffffffffffffffffffffffffffffffffffff167f8be0079c531659141344cd1fd0a4f28419497f9722a3daafe3b4186f6b6457e060405160405180910390a35050565b5080546000825560020290600052602060002090810190610898919061089b565b50565b5b808211156108dd57600080820160006101000a81549073ffffffffffffffffffffffffffffffffffffffff021916905560018201600090555060020161089c565b5090565b6000813590506108f081610cbf565b92915050565b60008151905061090581610cd6565b92915050565b60008151905061091a81610ced565b92915050565b60008151905061092f81610d04565b92915050565b60006020828403121561094b5761094a610c42565b5b6000610959848285016108e1565b91505092915050565b600080600080600060a0868803121561097e5761097d610c42565b5b600061098c88828901610920565b955050602061099d888289016108f6565b94505060406109ae8882890161090b565b93505060606109bf8882890161090b565b92505060806109d088828901610920565b9150509295509295909350565b60006109e98383610ac6565b60408301905092915050565b6109fe81610be6565b82525050565b610a0d81610be6565b82525050565b6000610a1e82610bac565b610a288185610bc4565b9350610a3383610b9c565b8060005b83811015610a64578151610a4b88826109dd565b9750610a5683610bb7565b925050600181019050610a37565b5085935050505092915050565b610a7a81610bf8565b82525050565b6000610a8d602683610bd5565b9150610a9882610c47565b604082019050919050565b6000610ab0602083610bd5565b9150610abb82610c96565b602082019050919050565b604082016000820151610adc60008501826109f5565b506020820151610aef6020850182610af5565b50505050565b610afe81610c22565b82525050565b6000602082019050610b196000830184610a04565b92915050565b60006020820190508181036000830152610b398184610a13565b905092915050565b6000602082019050610b566000830184610a71565b92915050565b60006020820190508181036000830152610b7581610a80565b9050919050565b60006020820190508181036000830152610b9581610aa3565b9050919050565b6000819050602082019050919050565b600081519050919050565b6000602082019050919050565b600082825260208201905092915050565b600082825260208201905092915050565b6000610bf182610c02565b9050919050565b6000819050919050565b600073ffffffffffffffffffffffffffffffffffffffff82169050919050565b6000819050919050565b600069ffffffffffffffffffff82169050919050565b600080fd5b7f4f776e61626c653a206e6577206f776e657220697320746865207a65726f206160008201527f6464726573730000000000000000000000000000000000000000000000000000602082015250565b7f4f776e61626c653a2063616c6c6572206973206e6f7420746865206f776e6572600082015250565b610cc881610be6565b8114610cd357600080fd5b50565b610cdf81610bf8565b8114610cea57600080fd5b50565b610cf681610c22565b8114610d0157600080fd5b50565b610d0d81610c2c565b8114610d1857600080fd5b5056fea2646970667358221220526e8dd1220f92511203bb6cba97847fcbb8897517bf2888e7f4a6767ae5e1a764736f6c63430008070033",
  "immutableReferences": {},
  "source": "// SPDX-License-Identifier: MIT\r\n\r\npragma solidity ^0.8.7;\r\n\r\nimport \"./Ownable.sol\";\r\n\r\nimport \"./priceFeed.sol\";\r\n\r\ncontract crowdfunding is Ownable,price{\r\n\r\n    struct fundDetails{\r\n        address wallet;\r\n        uint amount;\r\n    }\r\n    fundDetails[] detail;\r\n\r\n    // 1 dollar needs to be send\r\n\r\n    function sendFund() public payable{\r\n        uint amount = uint(getLatestPrice());\r\n        detail.push(fundDetails(msg.sender,msg.value));\r\n    }\r\n\r\n    function withdraw() public onlyOwner{\r\n        payable(owner()).transfer(address(this).balance); \r\n        delete detail;\r\n    }\r\n    fallback() external payable{\r\n        detail.push(fundDetails(msg.sender,msg.value));\r\n    } \r\n\r\n    receive() external payable{\r\n        detail.push(fundDetails(msg.sender,msg.value));\r\n    }\r\n\r\n    function listOfDonors() public view returns(fundDetails[] memory){\r\n        return detail;\r\n    }\r\n    \r\n}\r\n\r\n",
  "sourcePath": "C:\\Users\\RAJDEEP\\Desktop\\JOB\\Freelance\\LinkedIn\\CODING SHEEP TECHNOLOGIES LLP\\Decentralised CrowdFunding\\contracts\\crowdfunding.sol",
  "compiler": {
    "name": "solc",
    "version": "0.8.7+commit.e28d00a7.Emscripten.clang"
  },
  "schemaVersion": "3.4.3",
  "updatedAt": "2023-02-20T05:21:58.404Z",
  "devdoc": {
    "kind": "dev",
    "methods": {
      "owner()": {
        "details": "Returns the address of the current owner."
      },
      "renounceOwnership()": {
        "details": "Leaves the contract without owner. It will not be possible to call `onlyOwner` functions anymore. Can only be called by the current owner. NOTE: Renouncing ownership will leave the contract without an owner, thereby removing any functionality that is only available to the owner."
      },
      "transferOwnership(address)": {
        "details": "Transfers ownership of the contract to a new account (`newOwner`). Can only be called by the current owner."
      }
    },
    "version": 1
  },
  "userdoc": {
    "kind": "user",
    "methods": {
      "getLatestPrice()": {
        "notice": "Returns the latest price."
      }
    },
    "version": 1
  }
}